:020000040000FA
:100000008EEF04F0D9CFE5FFE1CFD9FF00C0E5FFC7
:1000100001C0E5FF02C0E5FF03C0E5FF04C0E5FF46
:1000200005C0E5FF06C0E5FF07C0E5FF08C0E5FF26
:10003000020EE56E000EE56E3BEC04F0020EE126CA
:10004000480E006E0D0E016E026A036A00C004F0D5
:1000500001C005F002C006F003C007F0FF0E002645
:10006000FF0E0122FF0E0222FF0E03220450051094
:1000700006100710EBE1006A00C001F0026A000EF2
:10008000025C02E1100E015CD8B057D0000E0024D3
:10009000016E026A0F0E022201C0E9FF02C0EAFFF0
:1000A000EFCF01F0015019E100C001F001C002F0F2
:1000B000036A000E035C02E1100E025C0EE2000E09
:1000C0000124026E036A0F0E032202C0E9FF03C07F
:1000D000EAFF200EEF6E012AE9D7000E0024016E20
:1000E000026A0F0E022201C0E9FF02C0EAFFEFCF51
:1000F00001F00150E56E010EE56E3BEC04F0020EDE
:10010000E126550E016E026A036A046A01C005F019
:1001100002C006F003C007F004C008F0FF0E01267D
:10012000FF0E0222FF0E0322FF0E042205500610CE
:1001300007100810EBE1002A9FD7C00EE56E000EF5
:10014000E56E3BEC04F0020EE126550E006E016AEE
:10015000026A036A00C004F001C005F002C006F0A4
:1001600003C007F0FF0E0026FF0E0122FF0E022241
:10017000FF0E03220450051006100710EBE1100ECD
:10018000006E00C001F0026A000E025C02E1200E67
:10019000015CD8B057D0000E0024016E026A0F0E29
:1001A000022201C0E9FF02C0EAFFEFCF01F00150D7
:1001B00019E100C001F001C002F0036A000E035C07
:1001C00002E1200E025C0EE2000E0124026E036AC0
:1001D0000F0E032202C0E9FF03C0EAFF200EEF6EFC
:1001E000012AE9D7000E0024016E026A0F0E0222D6
:1001F00001C0E9FF02C0EAFFEFCF01F00150E56E58
:10020000010EE56E3BEC04F0020EE126550E016E88
:10021000026A036A046A01C005F002C006F003C066
:1002200007F004C008F0FF0E0126FF0E0222FF0EA9
:100230000322FF0E04220550061007100810EBE100
:10024000002A9FD7E4CF08F0E4CF07F0E4CF06F010
:10025000E4CF05F0E4CF04F0E4CF03F0E4CF02F004
:10026000E4CF01F0E4CF00F0E4CFD9FF1200D9CF02
:10027000E5FFE1CFD9FF00C0E5FF01C0E5FF02C007
:10028000E5FF03C0E5FF04C0E5FF05C0E5FF06C0CC
:10029000E5FF07C0E5FF08C0E5FF000EE56E200E94
:1002A000E56E200EE56E0F0EE56E000EE56EF2ECCB
:1002B00002F0050EE1260F01206B90909092966A55
:1002C000999299949990A00E006E090E016E010EFC
:1002D000026E036A00C004F001C005F002C006F01F
:1002E00003C007F0FF0E0026FF0E0122FF0E0222C0
:1002F000FF0E03220450051006100710EBE1909446
:10030000030E8D6E00000000006A00C001F0026A5A
:10031000000E025C02E1030E015C39E29080110ED6
:10032000016E026A036A046A01C005F002C006F0A9
:1003300003C007F004C008F0FF0E0126FF0E0222E2
:10034000FF0E0322FF0E04220550061007100810AE
:10035000EBE19090480E016E0D0E026E036A046A86
:1003600001C005F002C006F003C007F004C008F0A9
:10037000FF0E0126FF0E0222FF0E0322FF0E0422B3
:100380000550061007100810EBE1002ABED7380E02
:10039000E56E000EE56E3BEC04F0020EE126550E14
:1003A000006E016A026A036A00C004F001C005F031
:1003B00002C006F003C007F0FF0E0026FF0E012268
:1003C000FF0E0222FF0E0322045005100610071034
:1003D000EBE1060EE56E000EE56E3BEC04F0020E5E
:1003E000E126550E006E016A026A036A00C004F03D
:1003F00001C005F002C006F003C007F0FF0E0026A2
:10040000FF0E0122FF0E0222FF0E032204500510F0
:1004100006100710EBE10C0EE56E000EE56E3BECEE
:1004200004F0020EE126550E006E016A026A036AAC
:1004300000C004F001C005F002C006F003C007F0E0
:10044000FF0E0026FF0E0122FF0E0222FF0E0322E6
:100450000450051006100710EBE1010EE56E000ECA
:10046000E56E3BEC04F0020EE126480E006E0D0E28
:10047000016E026A036A00C004F001C005F002C008
:1004800006F003C007F0FF0E0026FF0E0122FF0E4C
:100490000222FF0E03220450051006100710EBE1A4
:1004A000E4CF08F0E4CF07F0E4CF06F0E4CF05F0A6
:1004B000E4CF04F0E4CF03F0E4CF02F0E4CF01F0A6
:1004C000E4CF00F0E4CFD9FF1200D9CFE5FFE1CFB0
:1004D000D9FF00C0E5FF01C0E5FF02C0E5FF03C092
:1004E000E5FF04C0E5FF05C0E5FF06C0E5FF07C066
:1004F000E5FF08C0E5FF09C0E5FF020EDBCF00F015
:10050000030EDBCF01F0040EDBCF02F0050EDBCFD4
:1005100003F00350E56E0250E56E0150E56EFBEC12
:1005200003F0046EF3CF05F0030EE126005020081F
:10053000056E066A000E00260F0E06220650066E95
:100540000050006E800E076E0550045C02E305C08B
:1005500004F0056A0450051027E004C008F005C047
:1005600009F0FF0E0426D8A00506085009101CE06B
:1005700001C0E9FF02C0F3FF03507DEC04F0086EF8
:10058000012AD8B0022AD8B0032A08C0E5FF00C06B
:10059000E9FF06C0F3FF07509AEC04F0002AD8B038
:1005A000062AD8B0072AD9D702EC00F0E4CF09F028
:1005B000E4CF08F0E4CF07F0E4CF06F0E4CF05F095
:1005C000E4CF04F0E4CF03F0E4CF02F0E4CF01F095
:1005D000E4CF00F0E4CFD9FF120048656C6C6F20C7
:1005E0004C434400D9CFE5FFE1CFD9FF00C0E5FF80
:1005F00001C0E5FF02C0E5FF03C0E5FF04C0E5FF61
:1006000005C0E5FF06C0E5FF07C0E5FF08C0E5FF40
:1006100009C0E5FF020EDBCF00F0030EDBCF01F0D7
:10062000040EDBCF02F0050EDBCF03F0060EDBCFAE
:1006300004F00150066E0050056E800E076E03C078
:1006400008F004C009F0FF0E0326D8A004060850E5
:1006500009100FE002C0E5FF05C0E9FF06C0F3FF87
:1006600007509AEC04F0052AD8B0062AD8B0072A19
:10067000E6D7800E026E02C0F4FF01C0F3FF005007
:10068000E4CF09F0E4CF08F0E4CF07F0E4CF06F0C0
:10069000E4CF05F0E4CF04F0E4CF03F0E4CF02F0C0
:1006A000E4CF01F0E4CF00F0E4CFD9FF1200D9CFBE
:1006B000E5FFE1CFD9FF00C0E5FF01C0E5FF02C0C3
:1006C000E5FF03C0E5FF04C0E5FF05C0E5FF06C088
:1006D000E5FF07C0E5FF010EE56E000EE56E3BECA1
:1006E00004F0020EE126480E006E0D0E016E026A45
:1006F000036A00C004F001C005F002C006F003C0A8
:1007000007F0FF0E0026FF0E0122FF0E0222FF0E51
:1007100003220450051006100710EBE1000EE56EF1
:10072000200EE56E200EE56E0F0EE56E000EE56EF6
:10073000F2EC02F0050EE126E4CF07F0E4CF06F07C
:10074000E4CF05F0E4CF04F0E4CF03F0E4CF02F00F
:10075000E4CF01F0E4CF00F0E4CFD9FF1200480E5F
:10076000F66E090EF76E000EF86E0900F550056E74
:100770000900F550066E055002E106503BE0090005
:10078000F550006E0900F550016E0900F550026E3B
:1007900009000900F550E96E0900F550EA6E0900FC
:1007A00009000900F550036E0900F550046E0900B8
:1007B0000900F6CF07F0F7CF08F0F8CF09F000C036
:1007C000F6FF01C0F7FF02C0F8FF035002E104503A
:1007D00007E00900F550EE6E0306F8E20406F9D7CB
:1007E00007C0F6FF08C0F7FF09C0F8FF0506C4E21E
:1007F0000606C5D71200D9CFE5FFE1CFD9FF00C06B
:10080000E5FF01C0E5FF02C0E5FF03C0E5FF04C04E
:10081000E5FF05C0E5FF020EDBCF00F0030EDBCFE6
:1008200001F0040EDBCF02F0036A046A00C0E9FFA6
:1008300001C0F3FF02507DEC04F0056E002AD8B031
:10084000012AD8B0022A055004E0032AD8B0042AAD
:10085000EDD704C0F3FF0350E4CF05F0E4CF04F07C
:10086000E4CF03F0E4CF02F0E4CF01F0E4CF00F0F6
:10087000E4CFD9FF1200D9CFE5FFE1CFD9FF00C007
:10088000E5FF01C0E5FF020EDBCF00F0030EDBCF7A
:1008900001F0966A9994999290920050010BE84465
:1008A000E844F46E9050FB0BF410906E01C08DFF85
:1008B0000000000090800000000000000000000028
:1008C00000000000000000009090E4CF01F0E4CFB1
:1008D00000F0E4CFD9FF120037EC01F0000EE56E16
:1008E000050EE56EDA0EE56E000EE56E65EC02F0C3
:1008F000040EE126F36AE86A1200E8AE04D0F3CFF2
:10090000EAFFEE501200E8BC08D0E9CFF6FFF3CFC3
:10091000F7FFF86E0900F5501200120017EEFFF015
:1009200027EEFFF0F86AA68EA69CAFEC03F06CEC05
:1009300004F0FFD7E8AE05D0F3CFEAFFE4CFEEFF37
:100940001200E8AC12001200010056090000210F4D
:0809500000000100000000009E
:00000001FF
